{
  "_format": "hh-sol-artifact-1",
  "contractName": "TargetMinGasReserve",
  "sourceName": "contracts/test/TargetMinGasReserve.sol",
  "abi": [
    {
      "inputs": [],
      "name": "minGasReserve",
      "outputs": [
        {
          "internalType": "uint256",
          "name": "",
          "type": "uint256"
        }
      ],
      "stateMutability": "view",
      "type": "function"
    },
    {
      "inputs": [],
      "name": "owner",
      "outputs": [
        {
          "internalType": "address",
          "name": "",
          "type": "address"
        }
      ],
      "stateMutability": "view",
      "type": "function"
    },
    {
      "inputs": [
        {
          "internalType": "uint256",
          "name": "newMinGasReserve",
          "type": "uint256"
        }
      ],
      "name": "setMinGasReserve",
      "outputs": [],
      "stateMutability": "nonpayable",
      "type": "function"
    }
  ],
  "bytecode": "0x608060405234801561001057600080fd5b5060d68061001f6000396000f3fe6080604052348015600f57600080fd5b5060043610603c5760003560e01c806309924a401460415780638da5cb5b1460535780639d15956814609c575b600080fd5b6051604c36600460b1565b600155565b005b60005460729073ffffffffffffffffffffffffffffffffffffffff1681565b60405173ffffffffffffffffffffffffffffffffffffffff90911681526020015b60405180910390f35b60a460015481565b6040519081526020016093565b60006020828403121560c257600080fd5b503591905056fea164736f6c634300080c000a",
  "linkReferences": {},
  "deployedLinkReferences": {}
}