{
  "contracts/test/TargetPanic.sol": {
    "TargetPanic": {
      "abi": [
        {
          "inputs": [],
          "name": "panicArithmeticOverflow",
          "outputs": [
            {
              "internalType": "uint256",
              "name": "",
              "type": "uint256"
            }
          ],
          "stateMutability": "pure",
          "type": "function"
        },
        {
          "inputs": [],
          "name": "panicArithmeticUnderflow",
          "outputs": [
            {
              "internalType": "uint256",
              "name": "",
              "type": "uint256"
            }
          ],
          "stateMutability": "pure",
          "type": "function"
        },
        {
          "inputs": [],
          "name": "panicAssert",
          "outputs": [],
          "stateMutability": "pure",
          "type": "function"
        },
        {
          "inputs": [],
          "name": "panicDivisionByZero",
          "outputs": [
            {
              "internalType": "uint256",
              "name": "",
              "type": "uint256"
            }
          ],
          "stateMutability": "pure",
          "type": "function"
        }
      ],
      "evm": {
        "bytecode": {
          "linkReferences": {},
          "object": "608060405234801561001057600080fd5b5061014f806100206000396000f3fe608060405234801561001057600080fd5b506004361061004c5760003560e01c806343627db0146100515780635cd738601461006b578063975317e314610073578063b6bbe0611461007b575b600080fd5b610059610085565b60405190815260200160405180910390f35b61005961009a565b6100596100ae565b6100836100bb565b005b600080610094816000196100db565b91505090565b60006100a960001960016100fd565b905090565b60006100a9600182610115565b6100c361012c565b565b634e487b7160e01b600052601160045260246000fd5b6000826100f857634e487b7160e01b600052601260045260246000fd5b500490565b60008219821115610110576101106100c5565b500190565b600082821015610127576101276100c5565b500390565b634e487b7160e01b600052600160045260246000fdfea164736f6c634300080c000a",
          "opcodes": "PUSH1 0x80 PUSH1 0x40 MSTORE CALLVALUE DUP1 ISZERO PUSH2 0x10 JUMPI PUSH1 0x0 DUP1 REVERT JUMPDEST POP PUSH2 0x14F DUP1 PUSH2 0x20 PUSH1 0x0 CODECOPY PUSH1 0x0 RETURN INVALID PUSH1 0x80 PUSH1 0x40 MSTORE CALLVALUE DUP1 ISZERO PUSH2 0x10 JUMPI PUSH1 0x0 DUP1 REVERT JUMPDEST POP PUSH1 0x4 CALLDATASIZE LT PUSH2 0x4C JUMPI PUSH1 0x0 CALLDATALOAD PUSH1 0xE0 SHR DUP1 PUSH4 0x43627DB0 EQ PUSH2 0x51 JUMPI DUP1 PUSH4 0x5CD73860 EQ PUSH2 0x6B JUMPI DUP1 PUSH4 0x975317E3 EQ PUSH2 0x73 JUMPI DUP1 PUSH4 0xB6BBE061 EQ PUSH2 0x7B JUMPI JUMPDEST PUSH1 0x0 DUP1 REVERT JUMPDEST PUSH2 0x59 PUSH2 0x85 JUMP JUMPDEST PUSH1 0x40 MLOAD SWAP1 DUP2 MSTORE PUSH1 0x20 ADD PUSH1 0x40 MLOAD DUP1 SWAP2 SUB SWAP1 RETURN JUMPDEST PUSH2 0x59 PUSH2 0x9A JUMP JUMPDEST PUSH2 0x59 PUSH2 0xAE JUMP JUMPDEST PUSH2 0x83 PUSH2 0xBB JUMP JUMPDEST STOP JUMPDEST PUSH1 0x0 DUP1 PUSH2 0x94 DUP2 PUSH1 0x0 NOT PUSH2 0xDB JUMP JUMPDEST SWAP2 POP POP SWAP1 JUMP JUMPDEST PUSH1 0x0 PUSH2 0xA9 PUSH1 0x0 NOT PUSH1 0x1 PUSH2 0xFD JUMP JUMPDEST SWAP1 POP SWAP1 JUMP JUMPDEST PUSH1 0x0 PUSH2 0xA9 PUSH1 0x1 DUP3 PUSH2 0x115 JUMP JUMPDEST PUSH2 0xC3 PUSH2 0x12C JUMP JUMPDEST JUMP JUMPDEST PUSH4 0x4E487B71 PUSH1 0xE0 SHL PUSH1 0x0 MSTORE PUSH1 0x11 PUSH1 0x4 MSTORE PUSH1 0x24 PUSH1 0x0 REVERT JUMPDEST PUSH1 0x0 DUP3 PUSH2 0xF8 JUMPI PUSH4 0x4E487B71 PUSH1 0xE0 SHL PUSH1 0x0 MSTORE PUSH1 0x12 PUSH1 0x4 MSTORE PUSH1 0x24 PUSH1 0x0 REVERT JUMPDEST POP DIV SWAP1 JUMP JUMPDEST PUSH1 0x0 DUP3 NOT DUP3 GT ISZERO PUSH2 0x110 JUMPI PUSH2 0x110 PUSH2 0xC5 JUMP JUMPDEST POP ADD SWAP1 JUMP JUMPDEST PUSH1 0x0 DUP3 DUP3 LT ISZERO PUSH2 0x127 JUMPI PUSH2 0x127 PUSH2 0xC5 JUMP JUMPDEST POP SUB SWAP1 JUMP JUMPDEST PUSH4 0x4E487B71 PUSH1 0xE0 SHL PUSH1 0x0 MSTORE PUSH1 0x1 PUSH1 0x4 MSTORE PUSH1 0x24 PUSH1 0x0 REVERT INVALID LOG1 PUSH5 0x736F6C6343 STOP ADDMOD 0xC STOP EXP "
        },
        "methodIdentifiers": {
          "panicArithmeticOverflow()": "5cd73860",
          "panicArithmeticUnderflow()": "975317e3",
          "panicAssert()": "b6bbe061",
          "panicDivisionByZero()": "43627db0"
        }
      }
    }
  }
}