{
  "contracts/test/TargetMinGasReserve.sol": {
    "TargetMinGasReserve": {
      "abi": [
        {
          "inputs": [],
          "name": "minGasReserve",
          "outputs": [
            {
              "internalType": "uint256",
              "name": "",
              "type": "uint256"
            }
          ],
          "stateMutability": "view",
          "type": "function"
        },
        {
          "inputs": [],
          "name": "owner",
          "outputs": [
            {
              "internalType": "address",
              "name": "",
              "type": "address"
            }
          ],
          "stateMutability": "view",
          "type": "function"
        },
        {
          "inputs": [
            {
              "internalType": "uint256",
              "name": "newMinGasReserve",
              "type": "uint256"
            }
          ],
          "name": "setMinGasReserve",
          "outputs": [],
          "stateMutability": "nonpayable",
          "type": "function"
        }
      ],
      "evm": {
        "bytecode": {
          "linkReferences": {},
          "object": "608060405234801561001057600080fd5b5060d68061001f6000396000f3fe6080604052348015600f57600080fd5b5060043610603c5760003560e01c806309924a401460415780638da5cb5b1460535780639d15956814609c575b600080fd5b6051604c36600460b1565b600155565b005b60005460729073ffffffffffffffffffffffffffffffffffffffff1681565b60405173ffffffffffffffffffffffffffffffffffffffff90911681526020015b60405180910390f35b60a460015481565b6040519081526020016093565b60006020828403121560c257600080fd5b503591905056fea164736f6c634300080c000a",
          "opcodes": "PUSH1 0x80 PUSH1 0x40 MSTORE CALLVALUE DUP1 ISZERO PUSH2 0x10 JUMPI PUSH1 0x0 DUP1 REVERT JUMPDEST POP PUSH1 0xD6 DUP1 PUSH2 0x1F PUSH1 0x0 CODECOPY PUSH1 0x0 RETURN INVALID PUSH1 0x80 PUSH1 0x40 MSTORE CALLVALUE DUP1 ISZERO PUSH1 0xF JUMPI PUSH1 0x0 DUP1 REVERT JUMPDEST POP PUSH1 0x4 CALLDATASIZE LT PUSH1 0x3C JUMPI PUSH1 0x0 CALLDATALOAD PUSH1 0xE0 SHR DUP1 PUSH4 0x9924A40 EQ PUSH1 0x41 JUMPI DUP1 PUSH4 0x8DA5CB5B EQ PUSH1 0x53 JUMPI DUP1 PUSH4 0x9D159568 EQ PUSH1 0x9C JUMPI JUMPDEST PUSH1 0x0 DUP1 REVERT JUMPDEST PUSH1 0x51 PUSH1 0x4C CALLDATASIZE PUSH1 0x4 PUSH1 0xB1 JUMP JUMPDEST PUSH1 0x1 SSTORE JUMP JUMPDEST STOP JUMPDEST PUSH1 0x0 SLOAD PUSH1 0x72 SWAP1 PUSH20 0xFFFFFFFFFFFFFFFFFFFFFFFFFFFFFFFFFFFFFFFF AND DUP2 JUMP JUMPDEST PUSH1 0x40 MLOAD PUSH20 0xFFFFFFFFFFFFFFFFFFFFFFFFFFFFFFFFFFFFFFFF SWAP1 SWAP2 AND DUP2 MSTORE PUSH1 0x20 ADD JUMPDEST PUSH1 0x40 MLOAD DUP1 SWAP2 SUB SWAP1 RETURN JUMPDEST PUSH1 0xA4 PUSH1 0x1 SLOAD DUP2 JUMP JUMPDEST PUSH1 0x40 MLOAD SWAP1 DUP2 MSTORE PUSH1 0x20 ADD PUSH1 0x93 JUMP JUMPDEST PUSH1 0x0 PUSH1 0x20 DUP3 DUP5 SUB SLT ISZERO PUSH1 0xC2 JUMPI PUSH1 0x0 DUP1 REVERT JUMPDEST POP CALLDATALOAD SWAP2 SWAP1 POP JUMP INVALID LOG1 PUSH5 0x736F6C6343 STOP ADDMOD 0xC STOP EXP "
        },
        "methodIdentifiers": {
          "minGasReserve()": "9d159568",
          "owner()": "8da5cb5b",
          "setMinGasReserve(uint256)": "09924a40"
        }
      }
    }
  }
}