{
  "contracts/test/TargetEcho.sol": {
    "TargetEcho": {
      "abi": [
        {
          "inputs": [
            {
              "internalType": "address",
              "name": "input",
              "type": "address"
            }
          ],
          "name": "echoAddress",
          "outputs": [
            {
              "internalType": "address",
              "name": "",
              "type": "address"
            }
          ],
          "stateMutability": "pure",
          "type": "function"
        },
        {
          "inputs": [
            {
              "internalType": "uint256[]",
              "name": "input",
              "type": "uint256[]"
            }
          ],
          "name": "echoArray",
          "outputs": [
            {
              "internalType": "uint256[]",
              "name": "",
              "type": "uint256[]"
            }
          ],
          "stateMutability": "pure",
          "type": "function"
        },
        {
          "inputs": [
            {
              "internalType": "bytes",
              "name": "input",
              "type": "bytes"
            }
          ],
          "name": "echoBytes",
          "outputs": [
            {
              "internalType": "bytes",
              "name": "",
              "type": "bytes"
            }
          ],
          "stateMutability": "pure",
          "type": "function"
        },
        {
          "inputs": [
            {
              "internalType": "bytes32",
              "name": "input",
              "type": "bytes32"
            }
          ],
          "name": "echoBytes32",
          "outputs": [
            {
              "internalType": "bytes32",
              "name": "",
              "type": "bytes32"
            }
          ],
          "stateMutability": "pure",
          "type": "function"
        },
        {
          "inputs": [],
          "name": "echoMsgValue",
          "outputs": [
            {
              "internalType": "uint256",
              "name": "",
              "type": "uint256"
            }
          ],
          "stateMutability": "payable",
          "type": "function"
        },
        {
          "inputs": [
            {
              "internalType": "string",
              "name": "input",
              "type": "string"
            }
          ],
          "name": "echoString",
          "outputs": [
            {
              "internalType": "string",
              "name": "",
              "type": "string"
            }
          ],
          "stateMutability": "pure",
          "type": "function"
        },
        {
          "inputs": [
            {
              "components": [
                {
                  "internalType": "uint256",
                  "name": "foo",
                  "type": "uint256"
                },
                {
                  "internalType": "uint256",
                  "name": "bar",
                  "type": "uint256"
                },
                {
                  "internalType": "uint256",
                  "name": "baz",
                  "type": "uint256"
                }
              ],
              "internalType": "struct TargetEcho.TargetStruct",
              "name": "input",
              "type": "tuple"
            }
          ],
          "name": "echoStruct",
          "outputs": [
            {
              "components": [
                {
                  "internalType": "uint256",
                  "name": "foo",
                  "type": "uint256"
                },
                {
                  "internalType": "uint256",
                  "name": "bar",
                  "type": "uint256"
                },
                {
                  "internalType": "uint256",
                  "name": "baz",
                  "type": "uint256"
                }
              ],
              "internalType": "struct TargetEcho.TargetStruct",
              "name": "",
              "type": "tuple"
            }
          ],
          "stateMutability": "pure",
          "type": "function"
        },
        {
          "inputs": [
            {
              "internalType": "uint256",
              "name": "input",
              "type": "uint256"
            }
          ],
          "name": "echoUint256",
          "outputs": [
            {
              "internalType": "uint256",
              "name": "",
              "type": "uint256"
            }
          ],
          "stateMutability": "pure",
          "type": "function"
        },
        {
          "inputs": [
            {
              "internalType": "uint8",
              "name": "input",
              "type": "uint8"
            }
          ],
          "name": "echoUint8",
          "outputs": [
            {
              "internalType": "uint8",
              "name": "",
              "type": "uint8"
            }
          ],
          "stateMutability": "pure",
          "type": "function"
        }
      ],
      "evm": {
        "bytecode": {
          "linkReferences": {},
          "object": "608060405234801561001057600080fd5b5061048f806100206000396000f3fe6080604052600436106100965760003560e01c80636fb67f2f116100695780639a34832d1161004e5780639a34832d1461009b578063f07587f8146101b6578063fa5ffd62146101b657600080fd5b80636fb67f2f1461014957806382ac4d4f1461017657600080fd5b80630d7e2fce1461009b578063236a625b146100cf578063296e4fe8146100df578063648a1e8b1461011c575b600080fd5b3480156100a757600080fd5b506100b96100b6366004610276565b90565b6040516100c69190610314565b60405180910390f35b345b6040519081526020016100c6565b3480156100eb57600080fd5b506100fa6100b636600461032e565b60408051823581526020808401359082015291810135908201526060016100c6565b34801561012857600080fd5b506101376100b6366004610346565b60405160ff90911681526020016100c6565b34801561015557600080fd5b50610168610164366004610369565b9091565b6040516100c69291906103de565b34801561018257600080fd5b506101916100b6366004610433565b60405173ffffffffffffffffffffffffffffffffffffffff90911681526020016100c6565b3480156101c257600080fd5b506100d16100b6366004610469565b7f4e487b7100000000000000000000000000000000000000000000000000000000600052604160045260246000fd5b600067ffffffffffffffff8084111561021b5761021b6101d1565b604051601f8501601f19908116603f01168101908282118183101715610243576102436101d1565b8160405280935085815286868601111561025c57600080fd5b858560208301376000602087830101525050509392505050565b60006020828403121561028857600080fd5b813567ffffffffffffffff81111561029f57600080fd5b8201601f810184136102b057600080fd5b6102bf84823560208401610200565b949350505050565b6000815180845260005b818110156102ed576020818501810151868301820152016102d1565b818111156102ff576000602083870101525b50601f01601f19169290920160200192915050565b60208152600061032760208301846102c7565b9392505050565b60006060828403121561034057600080fd5b50919050565b60006020828403121561035857600080fd5b813560ff8116811461032757600080fd5b6000806020838503121561037c57600080fd5b823567ffffffffffffffff8082111561039457600080fd5b818501915085601f8301126103a857600080fd5b8135818111156103b757600080fd5b8660208260051b85010111156103cc57600080fd5b60209290920196919550909350505050565b6020815281602082015260007f07ffffffffffffffffffffffffffffffffffffffffffffffffffffffffffffff83111561041757600080fd5b8260051b80856040850137600092016040019182525092915050565b60006020828403121561044557600080fd5b813573ffffffffffffffffffffffffffffffffffffffff8116811461032757600080fd5b60006020828403121561047b57600080fd5b503591905056fea164736f6c634300080c000a",
          "opcodes": "PUSH1 0x80 PUSH1 0x40 MSTORE CALLVALUE DUP1 ISZERO PUSH2 0x10 JUMPI PUSH1 0x0 DUP1 REVERT JUMPDEST POP PUSH2 0x48F DUP1 PUSH2 0x20 PUSH1 0x0 CODECOPY PUSH1 0x0 RETURN INVALID PUSH1 0x80 PUSH1 0x40 MSTORE PUSH1 0x4 CALLDATASIZE LT PUSH2 0x96 JUMPI PUSH1 0x0 CALLDATALOAD PUSH1 0xE0 SHR DUP1 PUSH4 0x6FB67F2F GT PUSH2 0x69 JUMPI DUP1 PUSH4 0x9A34832D GT PUSH2 0x4E JUMPI DUP1 PUSH4 0x9A34832D EQ PUSH2 0x9B JUMPI DUP1 PUSH4 0xF07587F8 EQ PUSH2 0x1B6 JUMPI DUP1 PUSH4 0xFA5FFD62 EQ PUSH2 0x1B6 JUMPI PUSH1 0x0 DUP1 REVERT JUMPDEST DUP1 PUSH4 0x6FB67F2F EQ PUSH2 0x149 JUMPI DUP1 PUSH4 0x82AC4D4F EQ PUSH2 0x176 JUMPI PUSH1 0x0 DUP1 REVERT JUMPDEST DUP1 PUSH4 0xD7E2FCE EQ PUSH2 0x9B JUMPI DUP1 PUSH4 0x236A625B EQ PUSH2 0xCF JUMPI DUP1 PUSH4 0x296E4FE8 EQ PUSH2 0xDF JUMPI DUP1 PUSH4 0x648A1E8B EQ PUSH2 0x11C JUMPI JUMPDEST PUSH1 0x0 DUP1 REVERT JUMPDEST CALLVALUE DUP1 ISZERO PUSH2 0xA7 JUMPI PUSH1 0x0 DUP1 REVERT JUMPDEST POP PUSH2 0xB9 PUSH2 0xB6 CALLDATASIZE PUSH1 0x4 PUSH2 0x276 JUMP JUMPDEST SWAP1 JUMP JUMPDEST PUSH1 0x40 MLOAD PUSH2 0xC6 SWAP2 SWAP1 PUSH2 0x314 JUMP JUMPDEST PUSH1 0x40 MLOAD DUP1 SWAP2 SUB SWAP1 RETURN JUMPDEST CALLVALUE JUMPDEST PUSH1 0x40 MLOAD SWAP1 DUP2 MSTORE PUSH1 0x20 ADD PUSH2 0xC6 JUMP JUMPDEST CALLVALUE DUP1 ISZERO PUSH2 0xEB JUMPI PUSH1 0x0 DUP1 REVERT JUMPDEST POP PUSH2 0xFA PUSH2 0xB6 CALLDATASIZE PUSH1 0x4 PUSH2 0x32E JUMP JUMPDEST PUSH1 0x40 DUP1 MLOAD DUP3 CALLDATALOAD DUP2 MSTORE PUSH1 0x20 DUP1 DUP5 ADD CALLDATALOAD SWAP1 DUP3 ADD MSTORE SWAP2 DUP2 ADD CALLDATALOAD SWAP1 DUP3 ADD MSTORE PUSH1 0x60 ADD PUSH2 0xC6 JUMP JUMPDEST CALLVALUE DUP1 ISZERO PUSH2 0x128 JUMPI PUSH1 0x0 DUP1 REVERT JUMPDEST POP PUSH2 0x137 PUSH2 0xB6 CALLDATASIZE PUSH1 0x4 PUSH2 0x346 JUMP JUMPDEST PUSH1 0x40 MLOAD PUSH1 0xFF SWAP1 SWAP2 AND DUP2 MSTORE PUSH1 0x20 ADD PUSH2 0xC6 JUMP JUMPDEST CALLVALUE DUP1 ISZERO PUSH2 0x155 JUMPI PUSH1 0x0 DUP1 REVERT JUMPDEST POP PUSH2 0x168 PUSH2 0x164 CALLDATASIZE PUSH1 0x4 PUSH2 0x369 JUMP JUMPDEST SWAP1 SWAP2 JUMP JUMPDEST PUSH1 0x40 MLOAD PUSH2 0xC6 SWAP3 SWAP2 SWAP1 PUSH2 0x3DE JUMP JUMPDEST CALLVALUE DUP1 ISZERO PUSH2 0x182 JUMPI PUSH1 0x0 DUP1 REVERT JUMPDEST POP PUSH2 0x191 PUSH2 0xB6 CALLDATASIZE PUSH1 0x4 PUSH2 0x433 JUMP JUMPDEST PUSH1 0x40 MLOAD PUSH20 0xFFFFFFFFFFFFFFFFFFFFFFFFFFFFFFFFFFFFFFFF SWAP1 SWAP2 AND DUP2 MSTORE PUSH1 0x20 ADD PUSH2 0xC6 JUMP JUMPDEST CALLVALUE DUP1 ISZERO PUSH2 0x1C2 JUMPI PUSH1 0x0 DUP1 REVERT JUMPDEST POP PUSH2 0xD1 PUSH2 0xB6 CALLDATASIZE PUSH1 0x4 PUSH2 0x469 JUMP JUMPDEST PUSH32 0x4E487B7100000000000000000000000000000000000000000000000000000000 PUSH1 0x0 MSTORE PUSH1 0x41 PUSH1 0x4 MSTORE PUSH1 0x24 PUSH1 0x0 REVERT JUMPDEST PUSH1 0x0 PUSH8 0xFFFFFFFFFFFFFFFF DUP1 DUP5 GT ISZERO PUSH2 0x21B JUMPI PUSH2 0x21B PUSH2 0x1D1 JUMP JUMPDEST PUSH1 0x40 MLOAD PUSH1 0x1F DUP6 ADD PUSH1 0x1F NOT SWAP1 DUP2 AND PUSH1 0x3F ADD AND DUP2 ADD SWAP1 DUP3 DUP3 GT DUP2 DUP4 LT OR ISZERO PUSH2 0x243 JUMPI PUSH2 0x243 PUSH2 0x1D1 JUMP JUMPDEST DUP2 PUSH1 0x40 MSTORE DUP1 SWAP4 POP DUP6 DUP2 MSTORE DUP7 DUP7 DUP7 ADD GT ISZERO PUSH2 0x25C JUMPI PUSH1 0x0 DUP1 REVERT JUMPDEST DUP6 DUP6 PUSH1 0x20 DUP4 ADD CALLDATACOPY PUSH1 0x0 PUSH1 0x20 DUP8 DUP4 ADD ADD MSTORE POP POP POP SWAP4 SWAP3 POP POP POP JUMP JUMPDEST PUSH1 0x0 PUSH1 0x20 DUP3 DUP5 SUB SLT ISZERO PUSH2 0x288 JUMPI PUSH1 0x0 DUP1 REVERT JUMPDEST DUP2 CALLDATALOAD PUSH8 0xFFFFFFFFFFFFFFFF DUP2 GT ISZERO PUSH2 0x29F JUMPI PUSH1 0x0 DUP1 REVERT JUMPDEST DUP3 ADD PUSH1 0x1F DUP2 ADD DUP5 SGT PUSH2 0x2B0 JUMPI PUSH1 0x0 DUP1 REVERT JUMPDEST PUSH2 0x2BF DUP5 DUP3 CALLDATALOAD PUSH1 0x20 DUP5 ADD PUSH2 0x200 JUMP JUMPDEST SWAP5 SWAP4 POP POP POP POP JUMP JUMPDEST PUSH1 0x0 DUP2 MLOAD DUP1 DUP5 MSTORE PUSH1 0x0 JUMPDEST DUP2 DUP2 LT ISZERO PUSH2 0x2ED JUMPI PUSH1 0x20 DUP2 DUP6 ADD DUP2 ADD MLOAD DUP7 DUP4 ADD DUP3 ADD MSTORE ADD PUSH2 0x2D1 JUMP JUMPDEST DUP2 DUP2 GT ISZERO PUSH2 0x2FF JUMPI PUSH1 0x0 PUSH1 0x20 DUP4 DUP8 ADD ADD MSTORE JUMPDEST POP PUSH1 0x1F ADD PUSH1 0x1F NOT AND SWAP3 SWAP1 SWAP3 ADD PUSH1 0x20 ADD SWAP3 SWAP2 POP POP JUMP JUMPDEST PUSH1 0x20 DUP2 MSTORE PUSH1 0x0 PUSH2 0x327 PUSH1 0x20 DUP4 ADD DUP5 PUSH2 0x2C7 JUMP JUMPDEST SWAP4 SWAP3 POP POP POP JUMP JUMPDEST PUSH1 0x0 PUSH1 0x60 DUP3 DUP5 SUB SLT ISZERO PUSH2 0x340 JUMPI PUSH1 0x0 DUP1 REVERT JUMPDEST POP SWAP2 SWAP1 POP JUMP JUMPDEST PUSH1 0x0 PUSH1 0x20 DUP3 DUP5 SUB SLT ISZERO PUSH2 0x358 JUMPI PUSH1 0x0 DUP1 REVERT JUMPDEST DUP2 CALLDATALOAD PUSH1 0xFF DUP2 AND DUP2 EQ PUSH2 0x327 JUMPI PUSH1 0x0 DUP1 REVERT JUMPDEST PUSH1 0x0 DUP1 PUSH1 0x20 DUP4 DUP6 SUB SLT ISZERO PUSH2 0x37C JUMPI PUSH1 0x0 DUP1 REVERT JUMPDEST DUP3 CALLDATALOAD PUSH8 0xFFFFFFFFFFFFFFFF DUP1 DUP3 GT ISZERO PUSH2 0x394 JUMPI PUSH1 0x0 DUP1 REVERT JUMPDEST DUP2 DUP6 ADD SWAP2 POP DUP6 PUSH1 0x1F DUP4 ADD SLT PUSH2 0x3A8 JUMPI PUSH1 0x0 DUP1 REVERT JUMPDEST DUP2 CALLDATALOAD DUP2 DUP2 GT ISZERO PUSH2 0x3B7 JUMPI PUSH1 0x0 DUP1 REVERT JUMPDEST DUP7 PUSH1 0x20 DUP3 PUSH1 0x5 SHL DUP6 ADD ADD GT ISZERO PUSH2 0x3CC JUMPI PUSH1 0x0 DUP1 REVERT JUMPDEST PUSH1 0x20 SWAP3 SWAP1 SWAP3 ADD SWAP7 SWAP2 SWAP6 POP SWAP1 SWAP4 POP POP POP POP JUMP JUMPDEST PUSH1 0x20 DUP2 MSTORE DUP2 PUSH1 0x20 DUP3 ADD MSTORE PUSH1 0x0 PUSH32 0x7FFFFFFFFFFFFFFFFFFFFFFFFFFFFFFFFFFFFFFFFFFFFFFFFFFFFFFFFFFFFFF DUP4 GT ISZERO PUSH2 0x417 JUMPI PUSH1 0x0 DUP1 REVERT JUMPDEST DUP3 PUSH1 0x5 SHL DUP1 DUP6 PUSH1 0x40 DUP6 ADD CALLDATACOPY PUSH1 0x0 SWAP3 ADD PUSH1 0x40 ADD SWAP2 DUP3 MSTORE POP SWAP3 SWAP2 POP POP JUMP JUMPDEST PUSH1 0x0 PUSH1 0x20 DUP3 DUP5 SUB SLT ISZERO PUSH2 0x445 JUMPI PUSH1 0x0 DUP1 REVERT JUMPDEST DUP2 CALLDATALOAD PUSH20 0xFFFFFFFFFFFFFFFFFFFFFFFFFFFFFFFFFFFFFFFF DUP2 AND DUP2 EQ PUSH2 0x327 JUMPI PUSH1 0x0 DUP1 REVERT JUMPDEST PUSH1 0x0 PUSH1 0x20 DUP3 DUP5 SUB SLT ISZERO PUSH2 0x47B JUMPI PUSH1 0x0 DUP1 REVERT JUMPDEST POP CALLDATALOAD SWAP2 SWAP1 POP JUMP INVALID LOG1 PUSH5 0x736F6C6343 STOP ADDMOD 0xC STOP EXP "
        },
        "methodIdentifiers": {
          "echoAddress(address)": "82ac4d4f",
          "echoArray(uint256[])": "6fb67f2f",
          "echoBytes(bytes)": "9a34832d",
          "echoBytes32(bytes32)": "fa5ffd62",
          "echoMsgValue()": "236a625b",
          "echoString(string)": "0d7e2fce",
          "echoStruct((uint256,uint256,uint256))": "296e4fe8",
          "echoUint256(uint256)": "f07587f8",
          "echoUint8(uint8)": "648a1e8b"
        }
      }
    }
  }
}