{
  "contracts/PRBProxy.sol": {
    "PRBProxy": {
      "abi": [
        {
          "inputs": [],
          "stateMutability": "nonpayable",
          "type": "constructor"
        },
        {
          "inputs": [
            {
              "internalType": "address",
              "name": "owner",
              "type": "address"
            },
            {
              "internalType": "address",
              "name": "caller",
              "type": "address"
            },
            {
              "internalType": "address",
              "name": "target",
              "type": "address"
            },
            {
              "internalType": "bytes4",
              "name": "selector",
              "type": "bytes4"
            }
          ],
          "name": "PRBProxy__ExecutionNotAuthorized",
          "type": "error"
        },
        {
          "inputs": [],
          "name": "PRBProxy__ExecutionReverted",
          "type": "error"
        },
        {
          "inputs": [
            {
              "internalType": "address",
              "name": "owner",
              "type": "address"
            },
            {
              "internalType": "address",
              "name": "caller",
              "type": "address"
            }
          ],
          "name": "PRBProxy__NotOwner",
          "type": "error"
        },
        {
          "inputs": [
            {
              "internalType": "address",
              "name": "originalOwner",
              "type": "address"
            },
            {
              "internalType": "address",
              "name": "newOwner",
              "type": "address"
            }
          ],
          "name": "PRBProxy__OwnerChanged",
          "type": "error"
        },
        {
          "inputs": [
            {
              "internalType": "address",
              "name": "target",
              "type": "address"
            }
          ],
          "name": "PRBProxy__TargetInvalid",
          "type": "error"
        },
        {
          "anonymous": false,
          "inputs": [
            {
              "indexed": true,
              "internalType": "address",
              "name": "target",
              "type": "address"
            },
            {
              "indexed": false,
              "internalType": "bytes",
              "name": "data",
              "type": "bytes"
            },
            {
              "indexed": false,
              "internalType": "bytes",
              "name": "response",
              "type": "bytes"
            }
          ],
          "name": "Execute",
          "type": "event"
        },
        {
          "anonymous": false,
          "inputs": [
            {
              "indexed": true,
              "internalType": "address",
              "name": "oldOwner",
              "type": "address"
            },
            {
              "indexed": true,
              "internalType": "address",
              "name": "newOwner",
              "type": "address"
            }
          ],
          "name": "TransferOwnership",
          "type": "event"
        },
        {
          "inputs": [
            {
              "internalType": "address",
              "name": "target",
              "type": "address"
            },
            {
              "internalType": "bytes",
              "name": "data",
              "type": "bytes"
            }
          ],
          "name": "execute",
          "outputs": [
            {
              "internalType": "bytes",
              "name": "response",
              "type": "bytes"
            }
          ],
          "stateMutability": "payable",
          "type": "function"
        },
        {
          "inputs": [
            {
              "internalType": "address",
              "name": "envoy",
              "type": "address"
            },
            {
              "internalType": "address",
              "name": "target",
              "type": "address"
            },
            {
              "internalType": "bytes4",
              "name": "selector",
              "type": "bytes4"
            }
          ],
          "name": "getPermission",
          "outputs": [
            {
              "internalType": "bool",
              "name": "",
              "type": "bool"
            }
          ],
          "stateMutability": "view",
          "type": "function"
        },
        {
          "inputs": [],
          "name": "minGasReserve",
          "outputs": [
            {
              "internalType": "uint256",
              "name": "",
              "type": "uint256"
            }
          ],
          "stateMutability": "view",
          "type": "function"
        },
        {
          "inputs": [],
          "name": "owner",
          "outputs": [
            {
              "internalType": "address",
              "name": "",
              "type": "address"
            }
          ],
          "stateMutability": "view",
          "type": "function"
        },
        {
          "inputs": [
            {
              "internalType": "address",
              "name": "envoy",
              "type": "address"
            },
            {
              "internalType": "address",
              "name": "target",
              "type": "address"
            },
            {
              "internalType": "bytes4",
              "name": "selector",
              "type": "bytes4"
            },
            {
              "internalType": "bool",
              "name": "permission",
              "type": "bool"
            }
          ],
          "name": "setPermission",
          "outputs": [],
          "stateMutability": "nonpayable",
          "type": "function"
        },
        {
          "inputs": [
            {
              "internalType": "address",
              "name": "newOwner",
              "type": "address"
            }
          ],
          "name": "transferOwnership",
          "outputs": [],
          "stateMutability": "nonpayable",
          "type": "function"
        },
        {
          "stateMutability": "payable",
          "type": "receive"
        }
      ],
      "evm": {
        "bytecode": {
          "linkReferences": {},
          "object": "608060405234801561001057600080fd5b50611388600155600080546001600160a01b0319163390811782556040519091907f5c486528ec3e3f0ea91181cff8116f02bfa350e03b8b6f12e00765adbb5af85c908290a36107d6806100656000396000f3fe6080604052600436106100695760003560e01c8063da8d882c11610043578063da8d882c146100fa578063e64624fa14610166578063f2fde38b1461018857600080fd5b80631cff79cd146100755780638da5cb5b1461009e5780639d159568146100d657600080fd5b3661007057005b600080fd5b610088610083366004610578565b6101a8565b6040516100959190610648565b60405180910390f35b3480156100aa57600080fd5b506000546100be906001600160a01b031681565b6040516001600160a01b039091168152602001610095565b3480156100e257600080fd5b506100ec60015481565b604051908152602001610095565b34801561010657600080fd5b5061015661011536600461067a565b6001600160a01b0392831660009081526002602090815260408083209490951682529283528381206001600160e01b03199290921681529152205460ff1690565b6040519015158152602001610095565b34801561017257600080fd5b506101866101813660046106bd565b610428565b005b34801561019457600080fd5b506101866101a3366004610718565b6104b8565b6000546060906001600160a01b03163314610262573360009081526002602090815260408083206001600160a01b0388168452825280832086356001600160e01b03198116855292529091205460ff16610260576000546040517fa2ee03b80000000000000000000000000000000000000000000000000000000081526001600160a01b03918216600482015233602482015290861660448201526001600160e01b0319821660648201526084015b60405180910390fd5b505b6001600160a01b0384163b6102ae576040517f29ba3bdf0000000000000000000000000000000000000000000000000000000081526001600160a01b0385166004820152602401610257565b600080546001546001600160a01b0390911691905a6102cd9190610733565b90506000866001600160a01b03168287876040516102ec929190610771565b6000604051808303818686f4925050503d8060008114610328576040519150601f19603f3d011682016040523d82523d6000602084013e61032d565b606091505b506000549095509091506001600160a01b03848116911614610392576000546040517fbcac60ce0000000000000000000000000000000000000000000000000000000081526001600160a01b0380861660048301529091166024820152604401610257565b866001600160a01b03167fb24ebe141c5f2a744b103bea65fce6c40e0dc65d7341d092c09b160f404479908787876040516103cf93929190610781565b60405180910390a28061041e578351156103ec5783518085602001fd5b6040517fe336368800000000000000000000000000000000000000000000000000000000815260040160405180910390fd5b5050509392505050565b6000546001600160a01b031633146104685760005460405163ac976e3960e01b81526001600160a01b039091166004820152336024820152604401610257565b6001600160a01b0393841660009081526002602090815260408083209590961682529384528481206001600160e01b03199390931681529190925291909120805460ff1916911515919091179055565b6000546001600160a01b03163381146104f55760405163ac976e3960e01b81526001600160a01b0382166004820152336024820152604401610257565b600080547fffffffffffffffffffffffff0000000000000000000000000000000000000000166001600160a01b0384811691821783556040519192908416917f5c486528ec3e3f0ea91181cff8116f02bfa350e03b8b6f12e00765adbb5af85c9190a35050565b80356001600160a01b038116811461057357600080fd5b919050565b60008060006040848603121561058d57600080fd5b6105968461055c565b9250602084013567ffffffffffffffff808211156105b357600080fd5b818601915086601f8301126105c757600080fd5b8135818111156105d657600080fd5b8760208285010111156105e857600080fd5b6020830194508093505050509250925092565b6000815180845260005b8181101561062157602081850181015186830182015201610605565b81811115610633576000602083870101525b50601f01601f19169290920160200192915050565b60208152600061065b60208301846105fb565b9392505050565b80356001600160e01b03198116811461057357600080fd5b60008060006060848603121561068f57600080fd5b6106988461055c565b92506106a66020850161055c565b91506106b460408501610662565b90509250925092565b600080600080608085870312156106d357600080fd5b6106dc8561055c565b93506106ea6020860161055c565b92506106f860408601610662565b91506060850135801515811461070d57600080fd5b939692955090935050565b60006020828403121561072a57600080fd5b61065b8261055c565b60008282101561076c577f4e487b7100000000000000000000000000000000000000000000000000000000600052601160045260246000fd5b500390565b8183823760009101908152919050565b60408152826040820152828460608301376000606084830101526000601f19601f850116820160608382030160208401526107bf60608201856105fb565b969550505050505056fea164736f6c634300080c000a",
          "opcodes": "PUSH1 0x80 PUSH1 0x40 MSTORE CALLVALUE DUP1 ISZERO PUSH2 0x10 JUMPI PUSH1 0x0 DUP1 REVERT JUMPDEST POP PUSH2 0x1388 PUSH1 0x1 SSTORE PUSH1 0x0 DUP1 SLOAD PUSH1 0x1 PUSH1 0x1 PUSH1 0xA0 SHL SUB NOT AND CALLER SWAP1 DUP2 OR DUP3 SSTORE PUSH1 0x40 MLOAD SWAP1 SWAP2 SWAP1 PUSH32 0x5C486528EC3E3F0EA91181CFF8116F02BFA350E03B8B6F12E00765ADBB5AF85C SWAP1 DUP3 SWAP1 LOG3 PUSH2 0x7D6 DUP1 PUSH2 0x65 PUSH1 0x0 CODECOPY PUSH1 0x0 RETURN INVALID PUSH1 0x80 PUSH1 0x40 MSTORE PUSH1 0x4 CALLDATASIZE LT PUSH2 0x69 JUMPI PUSH1 0x0 CALLDATALOAD PUSH1 0xE0 SHR DUP1 PUSH4 0xDA8D882C GT PUSH2 0x43 JUMPI DUP1 PUSH4 0xDA8D882C EQ PUSH2 0xFA JUMPI DUP1 PUSH4 0xE64624FA EQ PUSH2 0x166 JUMPI DUP1 PUSH4 0xF2FDE38B EQ PUSH2 0x188 JUMPI PUSH1 0x0 DUP1 REVERT JUMPDEST DUP1 PUSH4 0x1CFF79CD EQ PUSH2 0x75 JUMPI DUP1 PUSH4 0x8DA5CB5B EQ PUSH2 0x9E JUMPI DUP1 PUSH4 0x9D159568 EQ PUSH2 0xD6 JUMPI PUSH1 0x0 DUP1 REVERT JUMPDEST CALLDATASIZE PUSH2 0x70 JUMPI STOP JUMPDEST PUSH1 0x0 DUP1 REVERT JUMPDEST PUSH2 0x88 PUSH2 0x83 CALLDATASIZE PUSH1 0x4 PUSH2 0x578 JUMP JUMPDEST PUSH2 0x1A8 JUMP JUMPDEST PUSH1 0x40 MLOAD PUSH2 0x95 SWAP2 SWAP1 PUSH2 0x648 JUMP JUMPDEST PUSH1 0x40 MLOAD DUP1 SWAP2 SUB SWAP1 RETURN JUMPDEST CALLVALUE DUP1 ISZERO PUSH2 0xAA JUMPI PUSH1 0x0 DUP1 REVERT JUMPDEST POP PUSH1 0x0 SLOAD PUSH2 0xBE SWAP1 PUSH1 0x1 PUSH1 0x1 PUSH1 0xA0 SHL SUB AND DUP2 JUMP JUMPDEST PUSH1 0x40 MLOAD PUSH1 0x1 PUSH1 0x1 PUSH1 0xA0 SHL SUB SWAP1 SWAP2 AND DUP2 MSTORE PUSH1 0x20 ADD PUSH2 0x95 JUMP JUMPDEST CALLVALUE DUP1 ISZERO PUSH2 0xE2 JUMPI PUSH1 0x0 DUP1 REVERT JUMPDEST POP PUSH2 0xEC PUSH1 0x1 SLOAD DUP2 JUMP JUMPDEST PUSH1 0x40 MLOAD SWAP1 DUP2 MSTORE PUSH1 0x20 ADD PUSH2 0x95 JUMP JUMPDEST CALLVALUE DUP1 ISZERO PUSH2 0x106 JUMPI PUSH1 0x0 DUP1 REVERT JUMPDEST POP PUSH2 0x156 PUSH2 0x115 CALLDATASIZE PUSH1 0x4 PUSH2 0x67A JUMP JUMPDEST PUSH1 0x1 PUSH1 0x1 PUSH1 0xA0 SHL SUB SWAP3 DUP4 AND PUSH1 0x0 SWAP1 DUP2 MSTORE PUSH1 0x2 PUSH1 0x20 SWAP1 DUP2 MSTORE PUSH1 0x40 DUP1 DUP4 KECCAK256 SWAP5 SWAP1 SWAP6 AND DUP3 MSTORE SWAP3 DUP4 MSTORE DUP4 DUP2 KECCAK256 PUSH1 0x1 PUSH1 0x1 PUSH1 0xE0 SHL SUB NOT SWAP3 SWAP1 SWAP3 AND DUP2 MSTORE SWAP2 MSTORE KECCAK256 SLOAD PUSH1 0xFF AND SWAP1 JUMP JUMPDEST PUSH1 0x40 MLOAD SWAP1 ISZERO ISZERO DUP2 MSTORE PUSH1 0x20 ADD PUSH2 0x95 JUMP JUMPDEST CALLVALUE DUP1 ISZERO PUSH2 0x172 JUMPI PUSH1 0x0 DUP1 REVERT JUMPDEST POP PUSH2 0x186 PUSH2 0x181 CALLDATASIZE PUSH1 0x4 PUSH2 0x6BD JUMP JUMPDEST PUSH2 0x428 JUMP JUMPDEST STOP JUMPDEST CALLVALUE DUP1 ISZERO PUSH2 0x194 JUMPI PUSH1 0x0 DUP1 REVERT JUMPDEST POP PUSH2 0x186 PUSH2 0x1A3 CALLDATASIZE PUSH1 0x4 PUSH2 0x718 JUMP JUMPDEST PUSH2 0x4B8 JUMP JUMPDEST PUSH1 0x0 SLOAD PUSH1 0x60 SWAP1 PUSH1 0x1 PUSH1 0x1 PUSH1 0xA0 SHL SUB AND CALLER EQ PUSH2 0x262 JUMPI CALLER PUSH1 0x0 SWAP1 DUP2 MSTORE PUSH1 0x2 PUSH1 0x20 SWAP1 DUP2 MSTORE PUSH1 0x40 DUP1 DUP4 KECCAK256 PUSH1 0x1 PUSH1 0x1 PUSH1 0xA0 SHL SUB DUP9 AND DUP5 MSTORE DUP3 MSTORE DUP1 DUP4 KECCAK256 DUP7 CALLDATALOAD PUSH1 0x1 PUSH1 0x1 PUSH1 0xE0 SHL SUB NOT DUP2 AND DUP6 MSTORE SWAP3 MSTORE SWAP1 SWAP2 KECCAK256 SLOAD PUSH1 0xFF AND PUSH2 0x260 JUMPI PUSH1 0x0 SLOAD PUSH1 0x40 MLOAD PUSH32 0xA2EE03B800000000000000000000000000000000000000000000000000000000 DUP2 MSTORE PUSH1 0x1 PUSH1 0x1 PUSH1 0xA0 SHL SUB SWAP2 DUP3 AND PUSH1 0x4 DUP3 ADD MSTORE CALLER PUSH1 0x24 DUP3 ADD MSTORE SWAP1 DUP7 AND PUSH1 0x44 DUP3 ADD MSTORE PUSH1 0x1 PUSH1 0x1 PUSH1 0xE0 SHL SUB NOT DUP3 AND PUSH1 0x64 DUP3 ADD MSTORE PUSH1 0x84 ADD JUMPDEST PUSH1 0x40 MLOAD DUP1 SWAP2 SUB SWAP1 REVERT JUMPDEST POP JUMPDEST PUSH1 0x1 PUSH1 0x1 PUSH1 0xA0 SHL SUB DUP5 AND EXTCODESIZE PUSH2 0x2AE JUMPI PUSH1 0x40 MLOAD PUSH32 0x29BA3BDF00000000000000000000000000000000000000000000000000000000 DUP2 MSTORE PUSH1 0x1 PUSH1 0x1 PUSH1 0xA0 SHL SUB DUP6 AND PUSH1 0x4 DUP3 ADD MSTORE PUSH1 0x24 ADD PUSH2 0x257 JUMP JUMPDEST PUSH1 0x0 DUP1 SLOAD PUSH1 0x1 SLOAD PUSH1 0x1 PUSH1 0x1 PUSH1 0xA0 SHL SUB SWAP1 SWAP2 AND SWAP2 SWAP1 GAS PUSH2 0x2CD SWAP2 SWAP1 PUSH2 0x733 JUMP JUMPDEST SWAP1 POP PUSH1 0x0 DUP7 PUSH1 0x1 PUSH1 0x1 PUSH1 0xA0 SHL SUB AND DUP3 DUP8 DUP8 PUSH1 0x40 MLOAD PUSH2 0x2EC SWAP3 SWAP2 SWAP1 PUSH2 0x771 JUMP JUMPDEST PUSH1 0x0 PUSH1 0x40 MLOAD DUP1 DUP4 SUB DUP2 DUP7 DUP7 DELEGATECALL SWAP3 POP POP POP RETURNDATASIZE DUP1 PUSH1 0x0 DUP2 EQ PUSH2 0x328 JUMPI PUSH1 0x40 MLOAD SWAP2 POP PUSH1 0x1F NOT PUSH1 0x3F RETURNDATASIZE ADD AND DUP3 ADD PUSH1 0x40 MSTORE RETURNDATASIZE DUP3 MSTORE RETURNDATASIZE PUSH1 0x0 PUSH1 0x20 DUP5 ADD RETURNDATACOPY PUSH2 0x32D JUMP JUMPDEST PUSH1 0x60 SWAP2 POP JUMPDEST POP PUSH1 0x0 SLOAD SWAP1 SWAP6 POP SWAP1 SWAP2 POP PUSH1 0x1 PUSH1 0x1 PUSH1 0xA0 SHL SUB DUP5 DUP2 AND SWAP2 AND EQ PUSH2 0x392 JUMPI PUSH1 0x0 SLOAD PUSH1 0x40 MLOAD PUSH32 0xBCAC60CE00000000000000000000000000000000000000000000000000000000 DUP2 MSTORE PUSH1 0x1 PUSH1 0x1 PUSH1 0xA0 SHL SUB DUP1 DUP7 AND PUSH1 0x4 DUP4 ADD MSTORE SWAP1 SWAP2 AND PUSH1 0x24 DUP3 ADD MSTORE PUSH1 0x44 ADD PUSH2 0x257 JUMP JUMPDEST DUP7 PUSH1 0x1 PUSH1 0x1 PUSH1 0xA0 SHL SUB AND PUSH32 0xB24EBE141C5F2A744B103BEA65FCE6C40E0DC65D7341D092C09B160F40447990 DUP8 DUP8 DUP8 PUSH1 0x40 MLOAD PUSH2 0x3CF SWAP4 SWAP3 SWAP2 SWAP1 PUSH2 0x781 JUMP JUMPDEST PUSH1 0x40 MLOAD DUP1 SWAP2 SUB SWAP1 LOG2 DUP1 PUSH2 0x41E JUMPI DUP4 MLOAD ISZERO PUSH2 0x3EC JUMPI DUP4 MLOAD DUP1 DUP6 PUSH1 0x20 ADD REVERT JUMPDEST PUSH1 0x40 MLOAD PUSH32 0xE336368800000000000000000000000000000000000000000000000000000000 DUP2 MSTORE PUSH1 0x4 ADD PUSH1 0x40 MLOAD DUP1 SWAP2 SUB SWAP1 REVERT JUMPDEST POP POP POP SWAP4 SWAP3 POP POP POP JUMP JUMPDEST PUSH1 0x0 SLOAD PUSH1 0x1 PUSH1 0x1 PUSH1 0xA0 SHL SUB AND CALLER EQ PUSH2 0x468 JUMPI PUSH1 0x0 SLOAD PUSH1 0x40 MLOAD PUSH4 0xAC976E39 PUSH1 0xE0 SHL DUP2 MSTORE PUSH1 0x1 PUSH1 0x1 PUSH1 0xA0 SHL SUB SWAP1 SWAP2 AND PUSH1 0x4 DUP3 ADD MSTORE CALLER PUSH1 0x24 DUP3 ADD MSTORE PUSH1 0x44 ADD PUSH2 0x257 JUMP JUMPDEST PUSH1 0x1 PUSH1 0x1 PUSH1 0xA0 SHL SUB SWAP4 DUP5 AND PUSH1 0x0 SWAP1 DUP2 MSTORE PUSH1 0x2 PUSH1 0x20 SWAP1 DUP2 MSTORE PUSH1 0x40 DUP1 DUP4 KECCAK256 SWAP6 SWAP1 SWAP7 AND DUP3 MSTORE SWAP4 DUP5 MSTORE DUP5 DUP2 KECCAK256 PUSH1 0x1 PUSH1 0x1 PUSH1 0xE0 SHL SUB NOT SWAP4 SWAP1 SWAP4 AND DUP2 MSTORE SWAP2 SWAP1 SWAP3 MSTORE SWAP2 SWAP1 SWAP2 KECCAK256 DUP1 SLOAD PUSH1 0xFF NOT AND SWAP2 ISZERO ISZERO SWAP2 SWAP1 SWAP2 OR SWAP1 SSTORE JUMP JUMPDEST PUSH1 0x0 SLOAD PUSH1 0x1 PUSH1 0x1 PUSH1 0xA0 SHL SUB AND CALLER DUP2 EQ PUSH2 0x4F5 JUMPI PUSH1 0x40 MLOAD PUSH4 0xAC976E39 PUSH1 0xE0 SHL DUP2 MSTORE PUSH1 0x1 PUSH1 0x1 PUSH1 0xA0 SHL SUB DUP3 AND PUSH1 0x4 DUP3 ADD MSTORE CALLER PUSH1 0x24 DUP3 ADD MSTORE PUSH1 0x44 ADD PUSH2 0x257 JUMP JUMPDEST PUSH1 0x0 DUP1 SLOAD PUSH32 0xFFFFFFFFFFFFFFFFFFFFFFFF0000000000000000000000000000000000000000 AND PUSH1 0x1 PUSH1 0x1 PUSH1 0xA0 SHL SUB DUP5 DUP2 AND SWAP2 DUP3 OR DUP4 SSTORE PUSH1 0x40 MLOAD SWAP2 SWAP3 SWAP1 DUP5 AND SWAP2 PUSH32 0x5C486528EC3E3F0EA91181CFF8116F02BFA350E03B8B6F12E00765ADBB5AF85C SWAP2 SWAP1 LOG3 POP POP JUMP JUMPDEST DUP1 CALLDATALOAD PUSH1 0x1 PUSH1 0x1 PUSH1 0xA0 SHL SUB DUP2 AND DUP2 EQ PUSH2 0x573 JUMPI PUSH1 0x0 DUP1 REVERT JUMPDEST SWAP2 SWAP1 POP JUMP JUMPDEST PUSH1 0x0 DUP1 PUSH1 0x0 PUSH1 0x40 DUP5 DUP7 SUB SLT ISZERO PUSH2 0x58D JUMPI PUSH1 0x0 DUP1 REVERT JUMPDEST PUSH2 0x596 DUP5 PUSH2 0x55C JUMP JUMPDEST SWAP3 POP PUSH1 0x20 DUP5 ADD CALLDATALOAD PUSH8 0xFFFFFFFFFFFFFFFF DUP1 DUP3 GT ISZERO PUSH2 0x5B3 JUMPI PUSH1 0x0 DUP1 REVERT JUMPDEST DUP2 DUP7 ADD SWAP2 POP DUP7 PUSH1 0x1F DUP4 ADD SLT PUSH2 0x5C7 JUMPI PUSH1 0x0 DUP1 REVERT JUMPDEST DUP2 CALLDATALOAD DUP2 DUP2 GT ISZERO PUSH2 0x5D6 JUMPI PUSH1 0x0 DUP1 REVERT JUMPDEST DUP8 PUSH1 0x20 DUP3 DUP6 ADD ADD GT ISZERO PUSH2 0x5E8 JUMPI PUSH1 0x0 DUP1 REVERT JUMPDEST PUSH1 0x20 DUP4 ADD SWAP5 POP DUP1 SWAP4 POP POP POP POP SWAP3 POP SWAP3 POP SWAP3 JUMP JUMPDEST PUSH1 0x0 DUP2 MLOAD DUP1 DUP5 MSTORE PUSH1 0x0 JUMPDEST DUP2 DUP2 LT ISZERO PUSH2 0x621 JUMPI PUSH1 0x20 DUP2 DUP6 ADD DUP2 ADD MLOAD DUP7 DUP4 ADD DUP3 ADD MSTORE ADD PUSH2 0x605 JUMP JUMPDEST DUP2 DUP2 GT ISZERO PUSH2 0x633 JUMPI PUSH1 0x0 PUSH1 0x20 DUP4 DUP8 ADD ADD MSTORE JUMPDEST POP PUSH1 0x1F ADD PUSH1 0x1F NOT AND SWAP3 SWAP1 SWAP3 ADD PUSH1 0x20 ADD SWAP3 SWAP2 POP POP JUMP JUMPDEST PUSH1 0x20 DUP2 MSTORE PUSH1 0x0 PUSH2 0x65B PUSH1 0x20 DUP4 ADD DUP5 PUSH2 0x5FB JUMP JUMPDEST SWAP4 SWAP3 POP POP POP JUMP JUMPDEST DUP1 CALLDATALOAD PUSH1 0x1 PUSH1 0x1 PUSH1 0xE0 SHL SUB NOT DUP2 AND DUP2 EQ PUSH2 0x573 JUMPI PUSH1 0x0 DUP1 REVERT JUMPDEST PUSH1 0x0 DUP1 PUSH1 0x0 PUSH1 0x60 DUP5 DUP7 SUB SLT ISZERO PUSH2 0x68F JUMPI PUSH1 0x0 DUP1 REVERT JUMPDEST PUSH2 0x698 DUP5 PUSH2 0x55C JUMP JUMPDEST SWAP3 POP PUSH2 0x6A6 PUSH1 0x20 DUP6 ADD PUSH2 0x55C JUMP JUMPDEST SWAP2 POP PUSH2 0x6B4 PUSH1 0x40 DUP6 ADD PUSH2 0x662 JUMP JUMPDEST SWAP1 POP SWAP3 POP SWAP3 POP SWAP3 JUMP JUMPDEST PUSH1 0x0 DUP1 PUSH1 0x0 DUP1 PUSH1 0x80 DUP6 DUP8 SUB SLT ISZERO PUSH2 0x6D3 JUMPI PUSH1 0x0 DUP1 REVERT JUMPDEST PUSH2 0x6DC DUP6 PUSH2 0x55C JUMP JUMPDEST SWAP4 POP PUSH2 0x6EA PUSH1 0x20 DUP7 ADD PUSH2 0x55C JUMP JUMPDEST SWAP3 POP PUSH2 0x6F8 PUSH1 0x40 DUP7 ADD PUSH2 0x662 JUMP JUMPDEST SWAP2 POP PUSH1 0x60 DUP6 ADD CALLDATALOAD DUP1 ISZERO ISZERO DUP2 EQ PUSH2 0x70D JUMPI PUSH1 0x0 DUP1 REVERT JUMPDEST SWAP4 SWAP7 SWAP3 SWAP6 POP SWAP1 SWAP4 POP POP JUMP JUMPDEST PUSH1 0x0 PUSH1 0x20 DUP3 DUP5 SUB SLT ISZERO PUSH2 0x72A JUMPI PUSH1 0x0 DUP1 REVERT JUMPDEST PUSH2 0x65B DUP3 PUSH2 0x55C JUMP JUMPDEST PUSH1 0x0 DUP3 DUP3 LT ISZERO PUSH2 0x76C JUMPI PUSH32 0x4E487B7100000000000000000000000000000000000000000000000000000000 PUSH1 0x0 MSTORE PUSH1 0x11 PUSH1 0x4 MSTORE PUSH1 0x24 PUSH1 0x0 REVERT JUMPDEST POP SUB SWAP1 JUMP JUMPDEST DUP2 DUP4 DUP3 CALLDATACOPY PUSH1 0x0 SWAP2 ADD SWAP1 DUP2 MSTORE SWAP2 SWAP1 POP JUMP JUMPDEST PUSH1 0x40 DUP2 MSTORE DUP3 PUSH1 0x40 DUP3 ADD MSTORE DUP3 DUP5 PUSH1 0x60 DUP4 ADD CALLDATACOPY PUSH1 0x0 PUSH1 0x60 DUP5 DUP4 ADD ADD MSTORE PUSH1 0x0 PUSH1 0x1F NOT PUSH1 0x1F DUP6 ADD AND DUP3 ADD PUSH1 0x60 DUP4 DUP3 SUB ADD PUSH1 0x20 DUP5 ADD MSTORE PUSH2 0x7BF PUSH1 0x60 DUP3 ADD DUP6 PUSH2 0x5FB JUMP JUMPDEST SWAP7 SWAP6 POP POP POP POP POP POP JUMP INVALID LOG1 PUSH5 0x736F6C6343 STOP ADDMOD 0xC STOP EXP "
        },
        "methodIdentifiers": {
          "execute(address,bytes)": "1cff79cd",
          "getPermission(address,address,bytes4)": "da8d882c",
          "minGasReserve()": "9d159568",
          "owner()": "8da5cb5b",
          "setPermission(address,address,bytes4,bool)": "e64624fa",
          "transferOwnership(address)": "f2fde38b"
        }
      }
    }
  }
}