{
  "contracts/test/TargetRevert.sol": {
    "TargetRevert": {
      "abi": [
        {
          "inputs": [],
          "name": "TargetError",
          "type": "error"
        },
        {
          "inputs": [],
          "name": "revertLackPayableModifier",
          "outputs": [
            {
              "internalType": "uint256",
              "name": "",
              "type": "uint256"
            }
          ],
          "stateMutability": "pure",
          "type": "function"
        },
        {
          "inputs": [],
          "name": "revertWithCustomError",
          "outputs": [],
          "stateMutability": "pure",
          "type": "function"
        },
        {
          "inputs": [],
          "name": "revertWithNothing",
          "outputs": [],
          "stateMutability": "pure",
          "type": "function"
        },
        {
          "inputs": [],
          "name": "revertWithReason",
          "outputs": [],
          "stateMutability": "pure",
          "type": "function"
        },
        {
          "inputs": [],
          "name": "revertWithRequire",
          "outputs": [],
          "stateMutability": "pure",
          "type": "function"
        }
      ],
      "evm": {
        "bytecode": {
          "linkReferences": {},
          "object": "608060405234801561001057600080fd5b5061013f806100206000396000f3fe608060405234801561001057600080fd5b50600436106100675760003560e01c806388eea4ed1161005057806388eea4ed1461007e578063d449bf8814610086578063fe0a3dd71461007e57600080fd5b806346fc4bb11461006c5780635b2dd10014610076575b600080fd5b61007461009a565b005b6100746100cc565b610074600080fd5b600060405190815260200160405180910390f35b6040517f46a7034600000000000000000000000000000000000000000000000000000000815260040160405180910390fd5b6040517f08c379a000000000000000000000000000000000000000000000000000000000815260206004820152601060248201527f54686973206973206120726561736f6e00000000000000000000000000000000604482015260640160405180910390fdfea164736f6c634300080c000a",
          "opcodes": "PUSH1 0x80 PUSH1 0x40 MSTORE CALLVALUE DUP1 ISZERO PUSH2 0x10 JUMPI PUSH1 0x0 DUP1 REVERT JUMPDEST POP PUSH2 0x13F DUP1 PUSH2 0x20 PUSH1 0x0 CODECOPY PUSH1 0x0 RETURN INVALID PUSH1 0x80 PUSH1 0x40 MSTORE CALLVALUE DUP1 ISZERO PUSH2 0x10 JUMPI PUSH1 0x0 DUP1 REVERT JUMPDEST POP PUSH1 0x4 CALLDATASIZE LT PUSH2 0x67 JUMPI PUSH1 0x0 CALLDATALOAD PUSH1 0xE0 SHR DUP1 PUSH4 0x88EEA4ED GT PUSH2 0x50 JUMPI DUP1 PUSH4 0x88EEA4ED EQ PUSH2 0x7E JUMPI DUP1 PUSH4 0xD449BF88 EQ PUSH2 0x86 JUMPI DUP1 PUSH4 0xFE0A3DD7 EQ PUSH2 0x7E JUMPI PUSH1 0x0 DUP1 REVERT JUMPDEST DUP1 PUSH4 0x46FC4BB1 EQ PUSH2 0x6C JUMPI DUP1 PUSH4 0x5B2DD100 EQ PUSH2 0x76 JUMPI JUMPDEST PUSH1 0x0 DUP1 REVERT JUMPDEST PUSH2 0x74 PUSH2 0x9A JUMP JUMPDEST STOP JUMPDEST PUSH2 0x74 PUSH2 0xCC JUMP JUMPDEST PUSH2 0x74 PUSH1 0x0 DUP1 REVERT JUMPDEST PUSH1 0x0 PUSH1 0x40 MLOAD SWAP1 DUP2 MSTORE PUSH1 0x20 ADD PUSH1 0x40 MLOAD DUP1 SWAP2 SUB SWAP1 RETURN JUMPDEST PUSH1 0x40 MLOAD PUSH32 0x46A7034600000000000000000000000000000000000000000000000000000000 DUP2 MSTORE PUSH1 0x4 ADD PUSH1 0x40 MLOAD DUP1 SWAP2 SUB SWAP1 REVERT JUMPDEST PUSH1 0x40 MLOAD PUSH32 0x8C379A000000000000000000000000000000000000000000000000000000000 DUP2 MSTORE PUSH1 0x20 PUSH1 0x4 DUP3 ADD MSTORE PUSH1 0x10 PUSH1 0x24 DUP3 ADD MSTORE PUSH32 0x54686973206973206120726561736F6E00000000000000000000000000000000 PUSH1 0x44 DUP3 ADD MSTORE PUSH1 0x64 ADD PUSH1 0x40 MLOAD DUP1 SWAP2 SUB SWAP1 REVERT INVALID LOG1 PUSH5 0x736F6C6343 STOP ADDMOD 0xC STOP EXP "
        },
        "methodIdentifiers": {
          "revertLackPayableModifier()": "d449bf88",
          "revertWithCustomError()": "46fc4bb1",
          "revertWithNothing()": "fe0a3dd7",
          "revertWithReason()": "5b2dd100",
          "revertWithRequire()": "88eea4ed"
        }
      }
    }
  }
}