{
  "_format": "hh-sol-artifact-1",
  "contractName": "TargetChangeOwner",
  "sourceName": "contracts/test/TargetChangeOwner.sol",
  "abi": [
    {
      "inputs": [],
      "name": "changeOwner",
      "outputs": [],
      "stateMutability": "nonpayable",
      "type": "function"
    },
    {
      "inputs": [],
      "name": "owner",
      "outputs": [
        {
          "internalType": "address",
          "name": "",
          "type": "address"
        }
      ],
      "stateMutability": "view",
      "type": "function"
    }
  ],
  "bytecode": "0x608060405234801561001057600080fd5b5060bd8061001f6000396000f3fe6080604052348015600f57600080fd5b506004361060325760003560e01c806362a094771460375780638da5cb5b146068575b600080fd5b6066600080547fffffffffffffffffffffffff0000000000000000000000000000000000000000166001179055565b005b60005460879073ffffffffffffffffffffffffffffffffffffffff1681565b60405173ffffffffffffffffffffffffffffffffffffffff909116815260200160405180910390f3fea164736f6c634300080c000a",
  "linkReferences": {},
  "deployedLinkReferences": {}
}