{
  "_format": "hh-sol-artifact-1",
  "contractName": "TargetRevert",
  "sourceName": "contracts/test/TargetRevert.sol",
  "abi": [
    {
      "inputs": [],
      "name": "TargetError",
      "type": "error"
    },
    {
      "inputs": [],
      "name": "revertLackPayableModifier",
      "outputs": [
        {
          "internalType": "uint256",
          "name": "",
          "type": "uint256"
        }
      ],
      "stateMutability": "pure",
      "type": "function"
    },
    {
      "inputs": [],
      "name": "revertWithCustomError",
      "outputs": [],
      "stateMutability": "pure",
      "type": "function"
    },
    {
      "inputs": [],
      "name": "revertWithNothing",
      "outputs": [],
      "stateMutability": "pure",
      "type": "function"
    },
    {
      "inputs": [],
      "name": "revertWithReason",
      "outputs": [],
      "stateMutability": "pure",
      "type": "function"
    },
    {
      "inputs": [],
      "name": "revertWithRequire",
      "outputs": [],
      "stateMutability": "pure",
      "type": "function"
    }
  ],
  "bytecode": "0x608060405234801561001057600080fd5b5061013f806100206000396000f3fe608060405234801561001057600080fd5b50600436106100675760003560e01c806388eea4ed1161005057806388eea4ed1461007e578063d449bf8814610086578063fe0a3dd71461007e57600080fd5b806346fc4bb11461006c5780635b2dd10014610076575b600080fd5b61007461009a565b005b6100746100cc565b610074600080fd5b600060405190815260200160405180910390f35b6040517f46a7034600000000000000000000000000000000000000000000000000000000815260040160405180910390fd5b6040517f08c379a000000000000000000000000000000000000000000000000000000000815260206004820152601060248201527f54686973206973206120726561736f6e00000000000000000000000000000000604482015260640160405180910390fdfea164736f6c634300080c000a",
  "linkReferences": {},
  "deployedLinkReferences": {}
}