{
  "_format": "hh-sol-artifact-1",
  "contractName": "TargetPanic",
  "sourceName": "contracts/test/TargetPanic.sol",
  "abi": [
    {
      "inputs": [],
      "name": "panicArithmeticOverflow",
      "outputs": [
        {
          "internalType": "uint256",
          "name": "",
          "type": "uint256"
        }
      ],
      "stateMutability": "pure",
      "type": "function"
    },
    {
      "inputs": [],
      "name": "panicArithmeticUnderflow",
      "outputs": [
        {
          "internalType": "uint256",
          "name": "",
          "type": "uint256"
        }
      ],
      "stateMutability": "pure",
      "type": "function"
    },
    {
      "inputs": [],
      "name": "panicAssert",
      "outputs": [],
      "stateMutability": "pure",
      "type": "function"
    },
    {
      "inputs": [],
      "name": "panicDivisionByZero",
      "outputs": [
        {
          "internalType": "uint256",
          "name": "",
          "type": "uint256"
        }
      ],
      "stateMutability": "pure",
      "type": "function"
    }
  ],
  "bytecode": "0x608060405234801561001057600080fd5b5061014f806100206000396000f3fe608060405234801561001057600080fd5b506004361061004c5760003560e01c806343627db0146100515780635cd738601461006b578063975317e314610073578063b6bbe0611461007b575b600080fd5b610059610085565b60405190815260200160405180910390f35b61005961009a565b6100596100ae565b6100836100bb565b005b600080610094816000196100db565b91505090565b60006100a960001960016100fd565b905090565b60006100a9600182610115565b6100c361012c565b565b634e487b7160e01b600052601160045260246000fd5b6000826100f857634e487b7160e01b600052601260045260246000fd5b500490565b60008219821115610110576101106100c5565b500190565b600082821015610127576101276100c5565b500390565b634e487b7160e01b600052600160045260246000fdfea164736f6c634300080c000a",
  "linkReferences": {},
  "deployedLinkReferences": {}
}