{
  "_format": "hh-sol-artifact-1",
  "contractName": "Create2Utility",
  "sourceName": "contracts/test/Create2Utility.sol",
  "abi": [
    {
      "inputs": [
        {
          "internalType": "address",
          "name": "deployer",
          "type": "address"
        },
        {
          "internalType": "bytes32",
          "name": "seed",
          "type": "bytes32"
        },
        {
          "internalType": "address",
          "name": "factory",
          "type": "address"
        },
        {
          "internalType": "bytes",
          "name": "bytecode",
          "type": "bytes"
        }
      ],
      "name": "computeAddress",
      "outputs": [
        {
          "internalType": "address",
          "name": "",
          "type": "address"
        }
      ],
      "stateMutability": "pure",
      "type": "function"
    }
  ],
  "bytecode": "0x608060405234801561001057600080fd5b5061025f806100206000396000f3fe608060405234801561001057600080fd5b506004361061002b5760003560e01c80632aadb64114610030575b600080fd5b6100f561003e366004610176565b6040805173ffffffffffffffffffffffffffffffffffffffff9590951660208087019190915285820194909452805180860382018152606080870183528151918601919091208351938601939093207fff00000000000000000000000000000000000000000000000000000000000000608088015293901b6bffffffffffffffffffffffff19166081860152609585019190915260b5808501929092528051808503909201825260d5909301909252815191012090565b60405173ffffffffffffffffffffffffffffffffffffffff909116815260200160405180910390f35b803573ffffffffffffffffffffffffffffffffffffffff8116811461014257600080fd5b919050565b7f4e487b7100000000000000000000000000000000000000000000000000000000600052604160045260246000fd5b6000806000806080858703121561018c57600080fd5b6101958561011e565b9350602085013592506101aa6040860161011e565b9150606085013567ffffffffffffffff808211156101c757600080fd5b818701915087601f8301126101db57600080fd5b8135818111156101ed576101ed610147565b604051601f8201601f19908116603f0116810190838211818310171561021557610215610147565b816040528281528a602084870101111561022e57600080fd5b8260208601602083013760006020848301015280955050505050509295919450925056fea164736f6c634300080c000a",
  "linkReferences": {},
  "deployedLinkReferences": {}
}