{
  "_format": "hh-sol-artifact-1",
  "contractName": "TargetSelfDestruct",
  "sourceName": "contracts/test/TargetSelfDestruct.sol",
  "abi": [
    {
      "inputs": [
        {
          "internalType": "address payable",
          "name": "recipient",
          "type": "address"
        }
      ],
      "name": "destroyMe",
      "outputs": [],
      "stateMutability": "nonpayable",
      "type": "function"
    }
  ],
  "bytecode": "0x608060405234801561001057600080fd5b50609f8061001f6000396000f3fe6080604052348015600f57600080fd5b506004361060285760003560e01c806337095d5214602d575b600080fd5b603c60383660046057565b603e565b005b8073ffffffffffffffffffffffffffffffffffffffff16ff5b600060208284031215606857600080fd5b813573ffffffffffffffffffffffffffffffffffffffff81168114608b57600080fd5b939250505056fea164736f6c634300080c000a",
  "linkReferences": {},
  "deployedLinkReferences": {}
}